:1000000051C600006EC600006CC600006AC6000043
:1000100068C6000066C6000064C6000062C6000034
:1000200060C600005EC600005CC600005AC6000044
:1000300058C6000056C6000054C6000052C6000054
:100040000C941D554EC600004CC600004AC6000068
:100050000C94A9540C94645444C6000042C6000099
:1000600040C600003EC600003CC600003AC6000084
:1000700038C6000036C6000034C6000032C6000094
:1000800030C600002EC600002CC6000024422E42BE
:10009000364239423C423F42424245424842FFE0FA
:1000A000FFD1AFFF32FFD0FFFEFFE0FFD1AEFFD0A8
:1000B000FFFEFFE0FFD11000FFFEFFD0FFE0FFC119
:1000C000FFD1AED580A81FD300408D142002A1C857
:1000D000DA0281CFD9F1DB402EA4A6AFFFD0FFFE1C
:1000E00000091200FC0A01E803D720FFFD0EFD0BFA
:1000F000FD00000009000E010B0B09040080808048
:1001000080808080000080800404040903079090B0
:100110009090080A0A090000242424FF2424FF24C4
:100120002424070B0B0901FF107C92905038141205
:10013000927C10070A0A09010042A4A44810102466
:100140004A4A84070A0A090100609090906062940C
:1001500088946201040409040780808080030C0CE9
:100160000903FF2040408080808080804040200341
:100170000C0C0903FF80404020202020202040401C
:10018000800707070901031092543854921007079B
:1001900007090101101010FE1010100204040904D8
:1001A000FEC0C04080070101090104FE02020209ED
:1001B0000400C0C0070A0A09010002040408101064
:1001C00020404080070A0A09010038448282828266
:1001D00082824438070A0A0901001030509010103A
:1001E000101010FE070A0A090100384482020408B0
:1001F000102040FE070A0A090100FE020408180444
:1002000002028478070A0A090100040C14244484B9
:10021000FE040404070A0A090100FE808080F80435
:1002200002028478070A0A0901003C408080B8C4B1
:1002300082824438070A0A090100FE020404080801
:1002400010101010070A0A0901003844824438448B
:1002500082824438070A0A09010038448282463AF9
:1002600002020478020707090400C0C0000000C0B1
:10027000C00209090904FEC0C0000000C0C04080DF
:1002800005090909020008102040804020100807D5
:100290000404090102FE0000FE05090909020080AC
:1002A0004020100810204080070A0A090100384445
:1002B0008202040810100010070A0A0901003844DD
:1002C0009AAAAAAAAA9C403C070A0A090100102877
:1002D0002828447C44828282070A0A090100F884A3
:1002E0008284F884828284F8070A0A0901003C4269
:1002F000808080808080423C070A0A090100F884DF
:1003000082828282828284F8070A0A090100FE80C2
:100310008080F880808080FE070A0A090100FE8044
:100320008080F88080808080070A0A0901003844B4
:100330008280808E82824438070A0A090100828204
:100340008282FE8282828282050A0A090200F820E5
:1003500020202020202020F8070A0A0901003E085A
:100360000808080808888870070A0A0901008284BA
:100370008890A0D088848282070A0A0901008080C0
:1003800080808080808080FE070A0A0901008282C6
:10039000C6AA928282828282070A0A0901008282A8
:1003A000C2A2928A86828282070A0A0901007C829E
:1003B000828282828282827C070A0A090100F88492
:1003C000828284F880808080080B0B0901FF38440A
:1003D00082828282828A443A01070A0A090100F86D
:1003E00084828284F890888482070A0A0901007C4A
:1003F0008280807C020202827C070A0A090100FED8
:10040000101010101010101010070A0A09010082B5
:10041000828282828282824438070A0A090100822B
:10042000828244444428282810070A0A09010082CD
:1004300082828292929292AA44070A0A0901008259
:10044000824428101028448282070A0A0901008287
:10045000824428101010101010070A0A090100FE2B
:100460000204081020408080FE040C0C0903FFF0F9
:1004700080808080808080808080F0070A0A090167
:100480000080404020101008040402040C0C0902F3
:10049000FFF010101010101010101010F0070404CE
:1004A000090106102844820801010900FFFF030327
:1004B0000309030A8040200707070901007C0202A4
:1004C0007E82867A070A0A090100808080BCC28287
:1004D0008282C2BC0707070901007C82808080827B
:1004E0007C070A0A0901000202027A868282828659
:1004F0007A0707070901007C8282FE80827C070A56
:100500000A0901001C22222020F820202020070AAE
:100510000A0901FD7A84848478807C82827C070ABF
:100520000A090100808080BCC28282828282050A20
:100530000A090200600000E02020202020F8050DBC
:100540000D0902FD18000038080808080808888806
:1005500070070A0A090100808080848890B0C884EE
:1005600082050A0A090200E0202020202020202005
:10057000F8070707090100EC92929292928207070E
:1005800007090100BCC28282828282070707090133
:10059000007C82828282827C070A0A0901FDB8C43B
:1005A000828282C4B8808080070A0A0901FD3A4627
:1005B000828282463A0202020707070901009C6212
:1005C00042404040400707070901007C82807C02CE
:1005D000827C0709090901002020FC20202020221C
:1005E0001C0707070901008282828282867A070738
:1005F00007090100828244442828100707070901DF
:10060000008282929292AA4407070709010082445D
:100610002810284482070A0A0901FD4242242424A2
:100620001818109060070707090100FE0408102041
:1006300040FE060B0B0902001C20202020C02020B9
:1006400020201C010C0C0904FF80808080808080A9
:100650008080808080060B0B090100E010101010D4
:100660000C10101010E007030309010762928CFFC1
:10067000FFFFFFFFFFFFFFFFFFFFFFFFFFFFFFFF8A
:10068000FFFFFFFFFFFFFFFFFFFFFFFFFFFFFFFF7A
:1006900000000009000E010B0B090400808000001F
:1006A0008080808080808006080809010008789496
:1006B00090A0A47840070A0A0901001C222020F813
:1006C000202060A25C070606090103827C44447C6A
:1006D00082070A0A090100828244287C107C1010DB
:1006E00010010B0B0904FF808080808000808080D7
:1006F0008080040B0B0902FF6090806090909060F6
:1007000010906003020209030BA0A0080909090068
:10071000013C4299A5A1A599423C0507070901039F
:10072000609070907800F8070808090101122448C9
:100730009090482412060404090102FC04040405F4
:100740000101090204F80809090900013C42B9A5A0
:10075000BDA9A5423C060101090109FC04040409E4
:10076000030660909060070909090101101010FE4E
:1007700010101000FE04060609010460901060804D
:10078000F004060609010460902010906003030342
:1007900009030A2040800709090901FE828282823A
:1007A00082C6BA8080070A0A0901007E8A8A8A7A8C
:1007B0000A0A0A0A0A020202090404C0C004030366
:1007C0000902FD20906003060609010440C0404074
:1007D00040E00506060901047088887000F80708E3
:1007E000080901019048241212244890070A0A09B6
:1007F000010040C0404042E60A121A06070A0A09F0
:10080000010040C040404CF2020C101E070A0A09C9
:1008100001006090201092660A121A06070A0A095F
:1008200001001000101020408082827C070E0E090B
:1008300001002010080010282828447C448282826D
:10084000070E0E0901000810200010282828447CFB
:1008500044828282070E0E090100102844001028ED
:100860002828447C44828282070D0D0901003458F7
:100870000010282828447C44828282070D0D09013B
:100880000028280010282828447C44828282070EF1
:100890000E0901001028281010282828447C4482C2
:1008A0008282070A0A0901001E2828284E784888F3
:1008B000888E070D0D0901FD3C428080808080807C
:1008C000423C082418070E0E09010020100800FE03
:1008D000808080F880808080FE070E0E090100086D
:1008E000102000FE808080F880808080FE070E0E41
:1008F00009010010284400FE808080F880808080FC
:10090000FE070D0D090100282800FE808080F88078
:10091000808080FE050E0E09020040201000F820A5
:1009200020202020202020F8050E0E090200102093
:100930004000F82020202020202020F8050E0E095D
:10094000020020508800F82020202020202020F8BD
:10095000050D0D090200505000F820202020202015
:100960002020F8070A0A09010078444242F2424274
:10097000424478070D0D0901003458008282C2A25A
:10098000928A86828282070E0E09010020100800DA
:100990007C82828282828282827C070E0E09010022
:1009A000081020007C82828282828282827C070EF2
:1009B0000E090100102844007C8282828282828299
:1009C000827C070D0D0901003458007C82828282EE
:1009D000828282827C070D0D0901002828007C821A
:1009E000828282828282827C070707090101824417
:1009F0002810284482070C0C0901FF027C868A8A91
:100A00009292A2A2C27C80070E0E0901002010085B
:100A10000082828282828282824438070E0E09011D
:100A200000081020008282828282828282443807FB
:100A30000E0E090100102844008282828282828286
:100A4000824438070D0D0901002828008282828225
:100A5000828282824438070E0E09010008102000AD
:100A600082824428101010101010070A0A09010091
:100A70008080FC828282FC808080060A0A09010054
:100A800038444448D04844444458070B0B090100FB
:100A9000201008007C02027E82867A070B0B090177
:100AA00000081020007C02027E82867A070B0B0968
:100AB0000100102844007C02027E82867A070A0A1E
:100AC0000901003458007C02027E82867A070A0AF5
:100AD0000901002828007C02027E82867A070C0C1D
:100AE00009010010282810007C02027E82867A0705
:100AF00007070901006C12127E90926C070A0A091E
:100B000001FD7C82808080827C104830070B0B09BD
:100B10000100201008007C8282FE80827C070B0B83
:100B2000090100081020007C8282FE80827C070B75
:100B30000B090100102844007C8282FE80827C0721
:100B40000A0A0901002828007C8282FE80827C0536
:100B50000C0C0902008040200000E0202020202012
:100B6000F8050C0C0902001020400000E0202020B5
:100B70002020F8050C0C0902002050880000E0201D
:100B800020202020F8050B0B09020050500000E047
:100B90002020202020F8070B0B09010048305008C6
:100BA0003C448282824438070A0A09010034580012
:100BB000BCC28282828282070B0B090100201008CE
:100BC000007C82828282827C070B0B090100081064
:100BD00020007C82828282827C070B0B090100103C
:100BE0002844007C82828282827C070A0A090100F2
:100BF0003458007C82828282827C070A0A090100C2
:100C00002828007C82828282827C070909090100EF
:100C100010381000FE001038100709090901FF0202
:100C20007C8A8A92A2A27C80070B0B0901004020DB
:100C300010008282828282867A070B0B09010008EB
:100C40001020008282828282867A070B0B090100C3
:100C5000102844008282828282867A070A0A090169
:100C6000002828008282828282867A070E0E09017D
:100C7000FD04081000424224242418181090600734
:100C80000B0B0901FE8080B8C4828282C4B88080C8
:100C9000070D0D0901FD24240042422424241818C4
:100CA0001090600011241FBECFEFD0E4DEBFCDBF97
:100CB00019E0A0E0B1E0EEE5F7EB00E00BBF02C009
:100CC00007900D92AC37B107D9F721E3ACE7B9E053
:100CD00001C01D92A834B207E1F70E9424510C9480
:100CE000AD5B8EC96F927F928F929F92AF92BF92AF
:100CF000CF92DF92EF92FF920F931F93CF93DF93E8
:100D0000CDB7DEB7DA95DEBFCDBF982E892E762E11
:100D1000672E00E010E020E030E040E050E060E0CE
:100D200070E088EF96E10E942D38209120173091D5
:100D30002117409122175091231760912417709129
:100D40002517A0900217B0900317C0900417D090F9
:100D50000517E0900617F0900717009108171091FB
:100D6000091780912617909127170E94845609F43D
:100D700061C048EF56E160E071E0CE0101960E944B
:100D80002C3F8981833289F28F3279F2FE013196CC
:100D9000DF018191882339F08D3011F41C9203C05A
:100DA0008A30B1F7FBCF898190E00E94B256892B3F
:100DB00009F4BBCFA92DB82DFD0101900020E9F762
:100DC0003197AF014A1B5B0B692D782DCE0101963F
:100DD0000E94EA56892B09F0A8CF6DE370E0CE019E
:100DE00001960E94D656009729F48F929F9288E22E
:100DF00091E024C0FC012081222309F496CFBC019C
:100E00006F5F7F4F4FE750E0872D962D0E94F85679
:100E10006F927F928F929F9284E591E09F938F9340
:100E20000E9451570F900F900F900F900F900F90BE
:100E300081E00DC08F929F9289E691E09F938F93FE
:100E40000E9451570F900F900F900F9080E0D39514
:100E5000DEBFCDBFDF91CF911F910F91FF90EF903B
:100E6000DF90CF90BF90AF909F908F907F906F90CA
:100E7000089580E29BE0E0E4F9E1DF019C011D922E
:100E800021503040E1F70895CF92DF92EF92FF9228
:100E90000F931F93CF93DF934AE061E971E088EFEE
:100EA00096E10E94A92CC82F1F928F938CE991E0A4
:100EB0009F938F930E9451570F900F900F900F9018
:100EC000C1112DC000E419E1C1E0D0E082EBC82ED1
:100ED00081E0D82E98EFE92E96E1F92E1F930F931B
:100EE000DF93CF93DF92CF92FF92EF920E947B3FEE
:100EF000219608531D4F8DB79EB708969EBF8DBF94
:100F0000C530D10559F788EF96E1DF91CF911F9158
:100F10000F91FF90EF90DF90CF900C941038DF91FD
:100F2000CF911F910F91FF90EF90DF90CF90089598
:100F3000AF92BF92CF92DF92EF92FF920F931F93E7
:100F4000CF93DF93CDB7DEB76097DEBFCDBF81FF14
:100F500043C08FDF82EC91E00E94645741E061E979
:100F600071E088EF96E10E94A92C882329F08FEC8C
:100F700091E00E94645730C080E4E82E89E1F82EA9
:100F800001E010E096E0A92E92E0B92ECE01019684
:100F90006C011F930F93BF92AF92DF92CF920E948A
:100FA0009457B701C6019EDEB7018FEF800F0E94F4
:100FB00030530F5F1F4F98E3E91A9DEFF90A0F9026
:100FC0000F900F900F900F900F900530110509F7BB
:100FD00088EF96E10E9410386096DEBFCDBFDF91AA
:100FE000CF911F910F91FF90EF90DF90CF90BF9026
:100FF000AF900895811102C00C94054481E00895DA
:10100000CF93C82F1F928F9381E192E09F938F938C
:101010000E9451570F900F900F900F90C11103C075
:10102000CF910C943C4381E0CF910895CF92DF9211
:10103000EF92FF920F931F93FB01811109C0BA0138
:10104000A90198018701CF0176010E94084401C0DF
:1010500084E01F910F91FF90EF90DF90CF90089563
:10106000CF92DF92EF92FF920F931F93FB018111BA
:1010700009C0BA01A90198018701CF0176010E9438
:10108000524401C084E01F910F91FF90EF90DF90D8
:10109000CF900895962F811104C0BA01892F0C9426
:1010A000CB4484E00895FC0162817381CB01A0E010
:1010B000B0E0BA2FA92F982F88272181822BBA2F31
:1010C000A92F982F88272081BC01CD01622B08957C
:1010D000EF92FF920F93CF93DF937C01FC01848109
:1010E0009581A681B7819C01AD0160E070E080E050
:1010F00090E008E00E942F56D701E3812E2B0E943A
:101100002F561296EC9112972E2B0E942F56119665
:10111000EC9111972E2B0E942F56EC912E2BDF91E4
:10112000CF910F91FF90EF9008950F931F93CF935E
:10113000DF93FC01D22FC32FB42FA52FCB01008347
:1011400098014D2F5C2F6B2F7A2F08E00E944A5692
:1011500021830E944A5622830E944A5623830E947A
:101160004A5624830E944A5625830E944A56268363
:101170000E944A562783DF91CF911F910F910895C6
:10118000AF92BF92CF92DF92EF92FF920F931F9395
:10119000CF93DF93EC019A01AB0122503109410951
:1011A00051098F89988DA98DBA8D0297A109B1092E
:1011B000281739074A075B0788F469857A8580E034
:1011C00090E00E94AA55AFA8B8ACC9ACDAACEBACC1
:1011D000FCAC0DAD1EAD0E94665608C020E030E0AC
:1011E00040E050E060E070E080E090E0DF91CF917F
:1011F0001F910F91FF90EF90DF90CF90BF90AF9035
:1012000008952F923F924F925F926F927F928F92AA
:101210009F92AF92BF92CF92DF92EF92FF920F9385
:101220001F93CF93DF93FC014901B42FA52FCB016E
:10123000EF01CA5BDF4F0990D881C02D2496980139
:10124000A4016B2F7A2F09E00E944A560190F08189
:10125000E02D218432845101C12CD12CE12CF12CC0
:1012600000E010E00E94D355F22FE32F8F2F9E2F26
:10127000A42FB52F488159816A817B814115510581
:1012800061057105C1F084179507A607B70730F00F
:10129000841B950BA60BB70B2896ECCF4C815D8178
:1012A0006E817F818C019D01040F151F261F371F42
:1012B000C901B80103C060E070E0CB01DF91CF91BC
:1012C0001F910F91FF90EF90DF90CF90BF90AF9064
:1012D0009F908F907F906F905F904F903F902F9056
:1012E0000895FC019C01255F3F4F80E0982F90FB03
:1012F000979597F98191890FE217F307B9F7089548
:10130000CF93DF93FC01418150E04F5F5F4F65E079
:10131000440F551F6A95E1F780E090E060E070E0CF
:1013200062307105A1F0DC01A170BB2780FF02C013
:10133000A0E0B0E8EF01C60FD71F288196958795EA
:10134000EC01C20FD11DCD018C0F9D1F02C063E0C7
:1013500070E06F5F7F4F6417750710F3DF91CF91D7
:1013600008950F931F93DC01ED91FC9111979F015C
:101370002F5F3F4F2D933C93608170E080E090E0C1
:101380008B019C0101561109210931090A3111050E
:101390002105310528F4605271098109910912C0B3
:1013A000603871058105910568F0DC01CB0180583A
:1013B0009109A109B109FC01E35BFD4F608170E077
:1013C00080E090E01F910F9108952F923F924F92ED
:1013D0005F926F927F928F929F92AF92BF92CF92C5
:1013E000DF92EF92FF920F931F93CF93DF93CDB7CE
:1013F000DEB72697DEBFCDBF5C017E836D838A0199
:101400004901002369F0CE010596ABDF672B682BFD
:10141000692B19F480E090E064C001501109F1CF0C
:10142000F5018081811106C00115110519F081E0D7
:1014300090E057C01401F1E02F1A3108BC82AB8252
:101440008D819E819A838983EB81FC8180818F339A
:1014500011F08A3221F581149104E1F240E050E06C
:10146000EB81FC81CF0101969C838B8320812F33FC
:1014700019F44F5F5F4F01C0516021812F3381F319
:101480002A3271F369817A8191019FDF892B79F684
:10149000E981FA81C080D12CE12CF12C15C0CE015C
:1014A00003965FDF2B013C01CE0101965ADF6B01F1
:1014B0007C01461657066806790631F44528462809
:1014C000472809F0C1CFB3CFCE0105964ADF0115F9
:1014D000110509F49FCFCD28CE28CF2809F0AECF33
:1014E00099CF2696DEBFCDBFDF91CF911F910F918F
:1014F000FF90EF90DF90CF90BF90AF909F908F9034
:101500007F906F905F904F903F902F900895CF9372
:10151000DF93DC01ED91FC9111973097D1F09F01A1
:101520002F5F3F4FE90121978881803278F08A331D
:10153000B9F7908180ED890F8A3058F432962E17D2
:101540003F0739F4903329F42D933C9380E090E0E9
:1015500002C08FEF9FEFDF91CF9108950F931F93FC
:10156000CF93DF93EC018B01892BE9F0E881F981BE
:101570003097C9F080818823B1F02A813B81858131
:1015800096812817390779F4818134DD80FD0BC0FD
:101590002881398180E0F80131832083DF91CF9168
:1015A0001F910F91089589E020E030E0F4CF0F9370
:1015B0001F93CF93DF93EA01890144E553E00E9432
:1015C000AC418F3F910549F040F00230110568F0C1
:1015D0009883898382E090E00AC0009731F0012B64
:1015E00021F0888381E090E002C080E090E0DF910C
:1015F000CF911F910F9108952F923F924F925F923A
:101600006F927F928F929F92AF92BF92CF92DF9212
:10161000EF92FF920F931F93CF93DF93FC01EB01A7
:10162000C080D1801A8E26A537A540A951A962A9EC
:1016300073A984A995A9A0E00E948D5609F47AC1E6
:101640008F01D6018C91843009F08CC0A12CB12C73
:1016500080E090E000E010E070E4E72EF12C8824B8
:101660008A94912CD6011D96ED91FC911E9723A191
:1016700030E0A216B30608F03EC0B0E6EB16B2E0CA
:10168000FB0608F052C197012F713327232B19F461
:1016900022E0E20EF11CEE0DFF1D4080518042E081
:1016A000E40EF11CAFEFAA1ABA0A009729F49201CE
:1016B000385D21153840E8F0A801465E5F4F4C0FB9
:1016C0005D1FA0E0B0E0DC0199278827612C712C18
:1016D000BC01CD0164297529862997299401201B15
:1016E000310B65DF009709F420C1080F191F412C49
:1016F000512CC201B7CF892B09F017C10115110573
:1017000009F413C1FE01E00FF11F128E1D86D601F0
:101710001D96ED91FC911E978481982F97739C875D
:101720001D960D911C911E9784FD04C0C801C8969A
:10173000CFDC08C020E030E040E050E060E070E046
:1017400080E090E0288339834A835B836C837D83C8
:101750008E839F83F801848595859B878A878685FC
:101760009785E0C0EC5BFF4F80819181A281B381BE
:101770008F3F9F4FAF4FBF4F09F448C0812C912C32
:10178000A12CB12CE12CF12C66246A94712CD60189
:101790001B96ED91FC911C97E80DF91D80819181BC
:1017A000009761F1A114B10429F49C01385D211561
:1017B0003840E8F0A701465E5F4F4C0F5D1F1501F2
:1017C000412C512C210133242224A0E0B0E0BC01A3
:1017D000CD01622973298429952993012E193F0986
:1017E000E6DE009749F0E80EF91E80E090E0A2E006
:1017F0008A0E911C5C01CBCFE12CF12CAB2811F0AF
:10180000E12CF12CFE01EE0DFF1D128E80E090E028
:1018100020E030E06EE2A9014F5F5F4FD801D6961D
:10182000ED91FC91D797E20FF31F208130E0203239
:101830003105A9F02530310511F425EE30E04930AD
:10184000510541F48C30910528F4FE01E80FF91F91
:1018500065870196FE01E80FF91F258701969A0119
:101860004B305105C1F6FE01E80FF91F15862A8D90
:10187000211138C0892B31F0FE013D9658E020E05F
:1018800030E013C08FE38A8F21E030E01EC090E08B
:101890008E32910509F450E1BC01615471096A313D
:1018A000710538F084872F5F3F4F81918111EFCF11
:1018B0000CC0D801D6966D917C91D797DB011C9610
:1018C0004C91452379F38096EDCFFE01E20FF31F93
:1018D000128ED801D696ED91FC91D797848581110F
:1018E00001C01D86D801D696ED91FC91D7978385CE
:1018F0008F738C87D6960D911C91D797C8014C9603
:10190000D2DB4B015C0168839982AA82BB821C8274
:101910001D821E821F82F801868997899B878A878C
:10192000808D918D9987888705C08FE38A8F01E02C
:1019300010E0E8CEDF91CF911F910F91FF90EF90D3
:10194000DF90CF90BF90AF909F908F907F906F90DF
:101950005F904F903F902F9008950F931F93CF93D8
:10196000DF93EC01E881F9818F010F5F1F4F6081E8
:10197000862F90E0009731F064E573E00E94DF412C
:10198000009731F019830883BC0180E090E003C028
:101990006FEF7FEFCB01DF91CF911F910F910895F2
:1019A0000F931F93CF93DF938C01C0E0D0E0F80139
:1019B000619171918F016115710531F180E090E0C5
:1019C0000E94F441FE01E170FF27C0FF02C0E0E089
:1019D000F0E8D695C7959B013327C20FD31FAF01FF
:1019E0004C0F5D1F9A012170332740FF02C020E099
:1019F00030E856954795C72FDD27CA018C0F9D1FEC
:101A0000E901C80FD91FD3CFCE01DF91CF911F912C
:101A10000F910895FB01428D538D60E070E083309B
:101A200059F484899589A0E0B0E0DC0199278827E2
:101A3000482B592B6A2B7B2BCB01BA010895FB0154
:101A4000228F338FDC018C91833029F4CA01AA27BD
:101A5000BB27848B958B08950F931F93CF93DF93B0
:101A60008C01EB01C4961FDB6E837F838887998787
:101A7000C801C8962DDB2A873B874C875D876E8718
:101A80007F87888B998BF80181A182708D831E8A54
:101A90001F8A188E198EDF91CF911F910F91089593
:101AA0002F923F924F925F926F927F928F929F926E
:101AB000AF92BF92CF92DF92EF92FF920F931F935C
:101AC000CF93DF93CDB7DEB72C97DEBFCDBF1C0120
:101AD0004C010FE4800E911C5C0117E4A10EB11CB7
:101AE000F501E080F18002811381248135814681F6
:101AF0005781CC24C394D12CB401FC018181B0DA8C
:101B0000811151C0F1011382F50140805180628042
:101B10007380B481A581F681FB87F501F781FC878D
:101B2000F101438D548D658D768D6A017B0100E056
:101B300010E098014983DA82EB82FC820D831E83D8
:101B40002F8338879201A3016B2F7A2F8B859C8579
:101B5000A7A0B0A4C1A4D2A4E3A4F4A405A516A58B
:101B60000E947B56A980BA80CB80DC80E12CF12CCE
:101B700000E010E00E948456C0F482818230A9F413
:101B80009201A3016B2F7A2F8B859C850E9466564C
:101B9000CC24C394D12C79018A019B01AC01B401FE
:101BA00081815EDA02C081E001C080E02C96DEBF58
:101BB000CDBFDF91CF911F910F91FF90EF90DF90FC
:101BC000CF90BF90AF909F908F907F906F905F90DD
:101BD0004F903F902F9008952F923F924F925F9297
:101BE0006F927F928F929F92AF92BF92CF92DF922D
:101BF000EF92FF920F931F93CF93DF93CDB7DEB792
:101C00002697DEBFCDBF9E838D832A013B01FC0159
:101C10008381811127C0B301A2018D819E81B0DA39
:101C200019012A0169837A838B839C83ED81FE816C
:101C3000E95BFF4F20833182428353826483758343
:101C4000868397836D807E80EFE46E0E711C80E04A
:101C500092E0F3019C01119221503040E1F7812C78
:101C6000912C27C08D819E811BDF8823A1F281E00A
:101C700030C0940140E050E060E070E080E090E02F
:101C800051016201E980FA800B811C810E94665635
:101C9000CC24C394D12C79018A019B01AC01B301FE
:101CA000ED81FE818181DCD981110AC03FEF831A69
:101CB000930AED81FE818185928588169906C8F286
:101CC00081E0ED81FE81218532852815390509F4F1
:101CD00080E02696DEBFCDBFDF91CF911F910F919F
:101CE000FF90EF90DF90CF90BF90AF909F908F903C
:101CF0007F906F905F904F903F902F9008952F921C
:101D00003F924F925F926F927F928F929F92AF928B
:101D1000BF92CF92DF92EF92FF920F931F93CF93D8
:101D2000DF9300D000D0CDB7DEB74C0118012901F8
:101D30003A0169837A83895B9F4F9C838B83FC0183
:101D400020813181428153816481758186819781AF
:101D500058016201730109811A810E948456C9F1F8
:101D6000F4018381811122C0B401615B7F4FCC24D7
:101D7000C394D12C71018201930149815A81F401EC
:101D8000818154D98823B9F081E022242A94332414
:101D90003A9444244A9455245A9466246A947724A5
:101DA0007A94FFEFF9839FEF9A8306C0C40178DE2F
:101DB000811110C0D9CF80E0EB81FC81208231827B
:101DC0004282538264827582998196839A81978335
:101DD00001C080E02496DEBFCDBFDF91CF911F917F
:101DE0000F91FF90EF90DF90CF90BF90AF909F90BA
:101DF0008F907F906F905F904F903F902F900895BD
:101E0000EF92FF920F931F93CF93DF93EC011B820E
:101E1000FC01E95BFF4F8FEF8083818382838383A3
:101E20008483858386838783CE0169DF811179C0AE
:101E3000FE01E35BFD4FE080F1808E01015B1F4FEF
:101E400025E5E2162AEAF20651F44BE050E068E29A
:101E500072E0C8010E94B956892B09F465C0F801E7
:101E600080818B3E21F0885E823008F052C0F5E51B
:101E7000EF16FAEAFF0661F448E050E064E372E02E
:101E8000CE018F559F4F0E94B956892B09F44FC040
:101E9000FE01E65AFF4F808191818C0101501109AA
:101EA0000823192301151105A1F58115924089F523
:101EB00032968081882369F190E09C01215031099C
:101EC00082239323892B29F5319680819181892B57
:101ED00001F13296808190E001970297D0F431961B
:101EE00080819181892BA9F03296808191818038FF
:101EF000910548F4CE0181599F4FD5D861157105E0
:101F00008140910530F0CB59DF4F88819981892B31
:101F100099F4F5E5EF16FAEAFF0661F003E010E048
:101F20000BC004E010E008C001E010E005C000E0D4
:101F300010E002C002E010E0C801DF91CF911F91D4
:101F40000F91FF90EF9008953F924F925F926F92A2
:101F50007F928F929F92AF92BF92CF92DF92EF9239
:101F6000FF920F931F93CF93DF93CDB7DEB76297A6
:101F7000DEBFCDBF4C010D871E872F87388B8A01AE
:101F80009B01025011092109310909831A832B830E
:101F90003C83FC018789908DA18DB28D0297A109A8
:101FA000B109081719072A073B0720F019821A827E
:101FB0001B821C82E980FA800B811C81E986FA86EB
:101FC0000B871C87270138011D821E821F821886FD
:101FD0008401015C1F4F1A8B098B33243394D30186
:101FE000C2013CE0B695A795979587953A95D1F7AC
:101FF0005C016D019C01A60160E070E080E090E072
:10200000A989BA89AC901196BC9011971296CC9080
:1020100012971396DC9013971496EC9014971596DC
:10202000FC90159716960C91169717961C910E9486
:10203000665689019A01AB01BC01C40160DE8111C1
:1020400072C0D301C20123E0B695A79597958795F5
:102050002A95D1F79C013170C20187709927B32D61
:1020600001C0BB0F8A95EAF7DB2EF4014789508D3A
:10207000618D728D4250510961097109F401E20FBD
:10208000F31FE15BFF4F90819D21FFEF4F1A5F0A25
:102090006F0A7F0A441655066606770610F4DD0CB3
:1020A00006C0412C512C320120E032E0D12C91119C
:1020B0001DC08D819E81AF81B8850196A11DB11D86
:1020C0008D839E83AF83B887ED84FE840F85188946
:1020D0008E159F05A007B10789F469857A858B85E0
:1020E0009C856E5F7F4F8F4F9F4F24C049865A86D5
:1020F0006B867C861D821E821F82188689819A814A
:10210000AB81BC8184159505A605B70581F0D1107A
:10211000B5CF2F5F3F4F211592E0390708F05FCF11
:10212000DD24D394ABCF6FEF7FEFCB0103C060E032
:1021300070E0CB016296DEBFCDBFDF91CF911F91E2
:102140000F91FF90EF90DF90CF90BF90AF909F9056
:102150008F907F906F905F904F903F9008952F9257
:102160003F924F925F926F927F928F929F92AF9227
:10217000BF92CF92DF92EF92FF920F931F93CF9374
:10218000DF93CDB7DEB72B97DEBFCDBF1C01280193
:102190003901FE82ED82DB01CA010297A109B10972
:1021A00089839A83AB83BC83F101FF964C015D0167
:1021B0008CE0B694A794979487948A95D1F794016C
:1021C000A50160E070E080E090E0D101DF96AC9086
:1021D000B180C280D380E480F580068117810E949F
:1021E00066568901FA01B62F7B87F82EE92E4981C0
:1021F0005A816B817C8193E07695679557954795D9
:102200009A95D1F76A0181E0D82249815A814770B5
:10221000552791E001C0990F4A95EAF79A879801EE
:10222000AF016B2F7B858F2D9E2DA1E00E946F56F5
:10223000590149835F83962E872E888799879F014E
:102240004B2F5B856F2D7E2DC10159DD811139C06A
:102250009601A101420F531FFA01E15BFF4F9081EC
:10226000EA85E92361E070E011F460E070E0AD819F
:10227000BE816A177B0739F1FA01E15BFF4FBA852E
:102280009B27908341E0F101438391E0491A510873
:1022900061087108C9F0BB0FBA87B111DACF2F5F9F
:1022A0003F4FA1E0AA87C12CD12C8501E981FF8194
:1022B000B92D8B86F884E984211542E0340749F66C
:1022C000AECF81E001C082E02B96DEBFCDBFDF91B3
:1022D000CF911F910F91FF90EF90DF90CF90BF9023
:1022E000AF909F908F907F906F905F904F903F90B6
:1022F0002F9008952F923F924F925F926F927F920C
:102300008F929F92AF92BF92CF92DF92EF92FF9205
:102310000F931F93CF93DF93CDB7DEB72F97DEBF19
:10232000CDBF423051056105710508F4F7C1DC01EC
:102330000D90BC91A02DBE83AD8357960D911D913C
:102340002D913C915A97401751076207730708F087
:10235000E5C12A013B01FC018C91823009F486C061
:1023600018F4813041F0DAC1833009F4BCC0843004
:1023700009F4FEC0D3C14A0196948794840E951E39
:10238000A401452F552746959A0140E050E060E0B2
:1023900070E080E090E0ED81FE81A7A0B0A4C1A430
:1023A000D2A4E3A4F4A405A516A50E94665689014B
:1023B0009A01AB01BC01CF01A2DC882321F06FEFB1
:1023C0007FEFCB01B4C11401FFEF2F1A3F0AF401D4
:1023D000F170AD80BE80EA0DFB1DE15BFF4F908088
:1023E000A101452F552746959A0140E050E060E055
:1023F00070E080E090E0D5019796AC909797989622
:10240000BC9098979996CC9099979A96DC909A97C9
:102410009B96EC909B979C96FC909C979D960C911C
:102420009D979E961C919E970E94665689019A01DF
:10243000AB01BC01CD0163DC8111C1CFB1E03B2216
:10244000ED81FE81E20DF31DE15BFF4F8081692D7F
:1024500070E0782B40FE06C0E4E076956795EA953B
:10246000E1F701C07F7080E090E061C1BB24A72C40
:10247000962C852C9401A50160E070E080E090E04E
:10248000AD81BE819796AC9097979896BC9098979F
:102490009996CC9099979A96DC909A979B96EC9007
:1024A0009B979C96FC909C979D960C919D979E96D1
:1024B0001C919E970E94665689019A01AB01BC014E
:1024C000CD011DDC81117BCF440C551CE89440F8F4
:1024D000B1E05B22ED81FE81E40DF51DE15BFF4F74
:1024E00060817181C0CF4A015B0147E0B694A79437
:1024F000979487944A95D1F79401A50160E070E024
:1025000080E090E0AD81BE819796AC9097979896C9
:10251000BC9098979996CC9099979A96DC909A97B8
:102520009B96EC909B979C96FC909C979D960C910B
:102530009D979E961C919E970E94665689019A01CE
:10254000AB01BC01CD01DBDB811139CF8D819E81D7
:10255000815B9F4F440C551C440C551CBCEF4B2217
:10256000B1E05B22840D951D0E9453089F70DFC06F
:10257000F284038514852584368487849088A18815
:10258000AF862F2D302F412F522D632D782D892D81
:102590009A2DA0E0E5800E948D5641F0468157813A
:1025A00060857185452B462B472B11F4E110B6C091
:1025B0004681578160857185D301C201841B950BCB
:1025C000A60BB70B89839A83AB83BC83AD81BE8195
:1025D00019960D90BC91A02DBE87AD87B2E0EB128D
:1025E0003FC02F2D302F412F522D632D782D892D57
:1025F0009F85AFEF0E946F5609E00E944A56CD8436
:10260000DE845601C12CD12CE12CF12C8701AD8246
:10261000BE82CF82D886E986FA860B871C87C12CBA
:10262000D12CE12CF12C00E010E00E94D355C9011F
:10263000DA01E980FA800B811C818E159F05A007C5
:10264000B10708F46BC0E816F9060A071B0709F47E
:102650006AC0C301B2016F5F7F4F8F4F9F4F67C04A
:1026600023E0F22EEF100DC082899389A489B589E9
:1026700009811A812B813C81081719072A073B071A
:1026800040F386899789A08DB18D892B8A2B8B2B5E
:1026900009F049C05301420197E0B694A79497947A
:1026A00087949A95D1F79401A50160E070E080E0ED
:1026B00090E0AD81BE819796AC9097979896BC902C
:1026C00098979996CC9099979A96DC909A979B9622
:1026D000EC909B979C96FC909C979D960C919D9757
:1026E0009E961C919E970E94665689019A01AB01A5
:1026F000BC01CD0104DB811162CEED81FE81E15B85
:10270000FF4F440C551C440C551CC2018C7F91702A
:102710008E0F9F1F0E9453089F7709C061E070E0F1
:1027200080E090E004C06FEF7FEF8FEF9FE72F9680
:10273000DEBFCDBFDF91CF911F910F91FF90EF9042
:10274000DF90CF90BF90AF909F908F907F906F90D1
:102750005F904F903F902F9008952F923F924F920D
:102760005F926F927F928F929F92AF92BF92CF9221
:10277000DF92EF92FF920F931F93CF93DF93CDB72A
:10278000DEB72A97DEBFCDBF9A8789872A013B0132
:10279000DC012D903C90F1018081843029F080E0B3
:1027A00090E0A0E2B0E004C080E090E0A0E0B0E102
:1027B000481659066A067B0610F082E0FAC0D3017B
:1027C000C2018F719927AA27BB27892B8A2B8B2BB4
:1027D000A1F7A985BA8596964D925D926D927C92ED
:1027E00099971696CD90DD90ED90FC901997C114B5
:1027F000D104E104F10409F04BC0F1018081833080
:10280000C0F5D10117968D919C911897A0E0B0E08A
:10281000B301A20125E076956795579547952A95CE
:10282000D1F7481759076A077B0738F6D1019F96F9
:102830008C919F97E985FA8586A7D0968C91D09741
:1028400087A7D1968C91D19780ABD2968C91D29755
:1028500081ABD3968C91D39782ABD4968C91D4973D
:1028600083ABD5968C91D59784ABD6968C9185AB5E
:1028700062C0F10187A590A9A1A9B2A9E985FA854D
:1028800015820097A105B10509F4BBCF6C017D014C
:10289000D10119968D909C901A97A12CB12C99E09A
:1028A000880C991CAA1CBB1C9A95D1F7B701A601EC
:1028B000481459046A047B0410F189859A851ADD4D
:1028C0006B017C016F3FBFEF7B078B079B0709F410
:1028D0006FC0623071058105910508F46ECFF1017A
:1028E0008789908DA18DB28DC816D906EA06FB06A0
:1028F00008F063CF481859086A087B08D7CFC10190
:102900000E94C008A985BA859E962C939E979F9693
:102910003C939F97D0964C93D097D1965C93D19748
:10292000D2966C93D297D3967C93D397D4968C936C
:10293000D497D5969C93E985FA85C2A6D3A6E4A63A
:10294000F5A6A6A4B7A4C0A8D1A8E2A8F3A804A994
:1029500015A99501A601B701C801A0E00E948D56F6
:1029600009F42BCFA301920189E05695479537953D
:1029700027958A95D1F7BA01A9019A01AB0160E0C8
:1029800070E080E090E00E94665626A737A740AB33
:1029900051AB62AB73AB84AB95AB7FE4270E311CBC
:1029A00081E05822240C351C37AA26AA80E001C0F9
:1029B00081E02A96DEBFCDBFDF91CF911F910F91AD
:1029C000FF90EF90DF90CF90BF90AF909F908F904F
:1029D0007F906F905F904F903F902F9008952F922F
:1029E0003F924F925F926F927F928F929F92AF929F
:1029F000BF92CF92DF92EF92FF920F931F93CF93EC
:102A0000DF93CDB7DEB7EC97DEBFCDBF6B01142FE0
:102A1000DB011D921C920E94870A7C0197FDE2C394
:102A2000FC01EE0FFF1FE252F24F20803180211493
:102A3000310409F4D9C3F601318220821E7FD1010D
:102A40008C91882369F011968C910E94FA0780FD81
:102A500007C0112309F4CAC382FFC8C38AE0F7C5BF
:102A6000F1011082E1828E2D0E94000880FDC0C31A
:102A7000112311F082FDF2CF00E010E020E030E001
:102A800040E050E060E070E0C101BAD982309105C9
:102A900009F025C1F101EF5EFD4F80818E3E09F006
:102AA000E3C001E020E030E040E050E060E070E0B2
:102AB000C10125D9882319F084E090E010C191016B
:102AC000215B3F4F3A8B298B40E150E068E171E098
:102AD000C9010E94B956892B19F083E090E0FFC02C
:102AE000E989FA8920EF3FEF44244A94542C3201BB
:102AF0002430310510F0608101C060E018E0812EC3
:102B0000912C41E081E090E0A0E0B0E0562F54230A
:102B100019F480E090E0DC0184259525A625B725F1
:102B20002C013D01769467945794479480FF08C028
:102B300050E2452653E8552658EB65265DEE75268E
:102B4000440F71E0871A9108E9F62F5F3F4F3196E5
:102B50002C34310569F6C101815A9F4F0E945308F8
:102B6000409450946094709446165706680679060F
:102B700009F0B3CFC1018D559F4F0E9453086038B3
:102B800071058105910509F0A8CFC10181569F4FBC
:102B90000E9453082B013C0181E84816510461044E
:102BA000710408F09ACFC10189569F4F0E946808AE
:102BB0002F8F38A349A35AA36BA37CA38D8F9DA30A
:102BC0001E8A1D8A2D893E89C901A0E0B0E08415C6
:102BD0009505A605B70508F080CFA401452F552718
:102BE00046959A0140E050E060E070E080E090E0BF
:102BF000AF8CB8A0C9A0DAA0EBA0FCA00D8D1DA1E0
:102C00000E94665689019A01AB01BC01C10177D8C7
:102C1000811152CF84010078117040E150E06AEDDB
:102C200072E089899A89800F911F0E94B956892B79
:102C300049F0AD89BE891196BE8BAD8BB0E88B0E85
:102C4000911CC0CFC8018096E989FA898E0F9F1F19
:102C50000E94680889019A01AB01BC01C101D0D86A
:102C60008230910530F73BC081010B5E1D4FAE01F4
:102C70004F5F5F4F7A0151015BEAA51A5DEFB50A1C
:102C80006701C8010E945308D6016D937D938D930F
:102C90009D936D01005F1F4FA016B10691F76E0165
:102CA000B1E1CB0ED11CF70141915191619171912C
:102CB0007F01411551056105710561F08A019B0194
:102CC00040E050E060E070E0C1019AD882309105A8
:102CD00018F405C083E090E0CE14DF0421F78430BF
:102CE000910511F481E0B3C48230910510F08DE0BC
:102CF000AEC4F101E95BFF4F2081298B31813D8B0F
:102D000042814F8F538158A3648169A375817AA34F
:102D1000A681ABA3B781BCA37396019751F491012F
:102D200021573F4F81918111E2CFE217F307D1F78D
:102D300061C28081918181159240C9F6F101EB5900
:102D4000FF4F80819181009741F0AC0160E070E01D
:102D50004FA358A769A77AA709C0C1018D589F4FF3
:102D60000E9453086FA378A789A79AA76FA178A597
:102D700089A59AA5D1015B966D937D938D939C93C4
:102D80005E97F101E15AFF4F0081F10102838FEF5D
:102D9000800F823008F0ABCFE45AFF4F1081812FB3
:102DA00090E01A969C938E931997009709F49FCF01
:102DB0009C012150310982239323892B09F097CF5D
:102DC0003496208131813EA32DA318963C932E93F7
:102DD0001797C9018F709927892B09F088CF3296F0
:102DE000808191816C01E12CF12C892B39F4C10196
:102DF00081599F4F0E9453086B017C01F101E35AF6
:102E0000FF4F808091808114910409F470CFA02F2E
:102E1000B0E02FA138A549A55AA50E94A0556FA7DB
:102E200078AB89AB9AABC401A0E0B0E02DA13EA184
:102E300064E0369527956A95E1F7820F931FA11DEF
:102E4000B11D2FA538A949A95AA9280F391F4A1F12
:102E50005B1F2BA73CA74DA75EA7C216D306E406AF
:102E6000F50608F444CFC701B601621B730B840B4F
:102E7000950B212F30E040E050E00E947555DA01BB
:102E8000C9010197A109B109853F9F4FAF4FBF40CD
:102E900008F02DCF263F7FEF37074105510558F445
:102EA000263F8FE038074105510550F4A1E0B0E01E
:102EB000BE8FAD8F09C0E3E0F0E0FE8FED8F04C060
:102EC00062E070E07E8F6D8F29013A0172E0470E5B
:102ED000511C611C711CD10157964D925D926D92EF
:102EE0007C925A97E9895F96EC935F97FD8990965B
:102EF000FC9390972F8D91962C93919738A1929651
:102F00003C93929749A193964C9393975AA1949688
:102F10005C9394976BA195966C9395977CA19696EC
:102F20007C93940140E050E060E070E080E090E04D
:102F30005F01CF8CD8A0E9A0FAA00BA11CA10E9430
:102F40006656B22FA32F4DAB5EAB962E872E8BAB62
:102F50009CABF10127A330A741A752A763A774A791
:102F600085A796A72BA53CA54DA55EA559016A018D
:102F7000A60160E070E080E090E0A988BD88CF8C79
:102F8000D8A0E9A0FAA00BA11CA10E94665627AB0D
:102F900030AF41AF52AF63AF74AF85AF96AF4D8DD9
:102FA0005E8D43305105A9F5E758FF4F808191812F
:102FB000892B09F09CCE6DA17EA1672B09F097CEDD
:102FC000C10185589F4F0E9453088B019C01D1017C
:102FD0009F966C939F97D0961C93D097D1962C93E5
:102FE000D197D2963C93D297D3961C92D397D496EE
:102FF0001C92D497D5961C92D597D6961C92D30145
:10300000C20152E0880F991FAA1FBB1F5A95D1F722
:1030100053C0EDA1FEA1EF2B09F469CE2FA538A96D
:1030200049A95AA959016A01A60160E070E080E04F
:1030300090E0AB2EBA2ECDA8DEA8E92CF82C0BA977
:103040001CA90E946656D1019F962C939F97D096FB
:103050003C93D097D1964C93D197D2965C93D297CC
:10306000D3966C93D397D4967C93D497D5968C9320
:10307000D597D6969C93ED8DFE8D329739F4D3017A
:10308000C201880F991FAA1FBB1F16C0A3E0B0E0A2
:10309000A30192010E94A055DC01CB01B695A79532
:1030A0009795879593018201017011272227332775
:1030B000800F911FA21FB31F81509E4FAF4FBF4F74
:1030C00029E0B695A795979587952A95D1F72FA1D1
:1030D00038A549A55AA5281739074A075B0708F4F8
:1030E00006CE8FEF9FEFDC01F101838B948BA58BD4
:1030F000B68B8787908BA18BB28B80E884832D8DD4
:103100003E8D2330310509F050C0E158FF4F8081DA
:103110009181019709F049C029893D894F8D58A1B6
:1031200069A17AA18BA19CA1A1E00E946F5689019F
:103130009A01AB01BC01C1010E947F0E811135C013
:10314000D10114961C92F101E35BFD4F80819181C6
:1031500085359A4A51F5C101815B9F4F0E94530802
:10316000623572458146914401F5C1018D5C9D4FE8
:103170000E9453086237724781449146B1F4C101FD
:10318000895C9D4F0E945308D10153966D937D93A6
:103190008D939C935697C101855C9D4F0E94530867
:1031A000F1016787708B818B928BED8DD101EC9350
:1031B0008091DC0D9091DD0D01969093DD0D809353
:1031C000DC0D16969C938E9315978CE799E01C96D0
:1031D0009C938E931B978CE79BE01E969C938E93FB
:1031E0001D9704C08BE033C28CE031C280E02FC257
:1031F00083E02DC2F101E954FF4F80819181811557
:10320000914009F074CD88248394912CF101E55408
:10321000FF4FC401008002C0880F991F0A94E2F793
:103220008115924009F063CDC10189569F4F0E94DC
:10323000680859016A017B018C0129893D894F8DFC
:1032400058A169A17AA18BA19CA10E9466562DABC1
:103250003EAB4FAB58AF69AF7AAF8BAF9CAFC101FC
:103260008D559F4F0E945308D1015B966D937D93BE
:103270008D939C935E97F101E354FF4F8081F101A0
:103280008283813009F033CDE454FF4F94010080F4
:1032900002C0220F331F0A94E2F73E8F2D8F1A9639
:1032A0003C932E931997232B09F421CDC101855509
:1032B0009F4F0E9453082B013C016E3FBFEF7B07DD
:1032C0008B07BFE79B0708F012CDDC01CB0102960C
:1032D000A11DB11DF101878B908FA18FB28F29891C
:1032E000278F3D8930A34F8D41A358A152A369A1D7
:1032F00063A37AA174A38BA185A39CA196A3C1010A
:1033000089559F4F0E9453084B015C019B01A50109
:1033100060E070E080E090E0A988BD88CF8CD8A004
:10332000E9A0FAA00BA11CA10E9466562DA33FA301
:103330004BA75FA76BAB7CAB4C01D101D7962C930D
:10334000D797D8963C93D897D9964C93D997DA9635
:103350005C93DA97DB966C93DB97DC967C93DC9737
:10336000DD968C93DD97DE969C92C10181569F4F2E
:103370000E9453085B016C019B01A60160E070E0B4
:1033800080E090E0A988BD88CF8CD8A0E9A0FAA001
:103390000BA11CA10E946656F10127A330A741A7EB
:1033A00052A763A774A785A796A7AD8DBE8DA3016D
:1033B00092010E94A0555B016C019B01A60160E097
:1033C00070E080E090E0ADA0BFA0CBA4DFA4EBA8AC
:1033D000FCA884010E94665659016A017B018C0198
:1033E0002DA93EA94FA958AD69AD7AAD8BAD9CAD65
:1033F0000E94845608F47BCCC10181559F4F0E94E6
:1034000053088B019C01D1019F966C939F97D09696
:103410001C93D097D1962C93D197D2963C93D29768
:10342000D3961C92D397D4961C92D497D5961C927F
:10343000D597D6961C92412C512C3201198A1A8AA2
:103440001B8A1C8A411451046104710409F047C0AD
:10345000F10181859285A0E0B0E029893A894B8904
:103460005C89281739074A075B0708F040CC47A555
:1034700050A961A972A9C1010E94C00859016A013D
:103480007B018C0169897A898B899C89AB01BC019C
:1034900080E090E0DC014D8B5E8B6F8B788F898FA5
:1034A0009A8FAB8FBC8F9A01AB0160E070E080E037
:1034B00090E00E94665689019A01AB01BC01C101EE
:1034C0000E947F0E81110ECC89899A89AB89BC89B3
:1034D0000196A11DB11D898B9A8BAB8BBC8BF10121
:1034E000E40DF51DE15BFF4F8081813851F090E2E2
:1034F000490E511C611C711CA1E05A2266247724DC
:10350000A1CF4101BFE48B0E911CC2014496880DEE
:10351000991D0E9453082B013C0162307105810501
:10352000910508F4E4CBF1018789908DA18DB28DCE
:10353000481659066A067B0608F0D9CBA185B285E4
:10354000A301920122503109410951090E94A0555D
:103550005B016C019B01A60160E070E080E090E0FF
:10356000A7A8B0ACC1ACD2ACE3ACF4AC05AD16AD21
:103570000E94665627AFFF9631834283538364834C
:10358000758386839783D301C201E7E0B695A7953B
:1035900097958795EA95D1F75C016D019C01A6018D
:1035A00060E070E080E090E0D1019796AC90979752
:1035B0009896BC9098979996CC9099979A96DC900B
:1035C0009A979B96EC909B979C96FC909C979D96C7
:1035D0000C919D979E961C910E94665689019A01B6
:1035E000AB01BC01C1010E947F0E81117BCBC201E6
:1035F0008F779927880F991F880F991F880D991D1C
:103600000E9453086F3FBFEF7B078B079B0771F04A
:10361000EFEF4E1A5E0A6E0A7E0A6415750586057E
:10362000970509F064CB2B013C01ADCFD101539636
:103630006D937D938D939C935697F1016787708B63
:10364000818B928B24E030E03E8F2D8FAECDEC96B7
:10365000DEBFCDBFDF91CF911F910F91FF90EF9013
:10366000DF90CF90BF90AF909F908F907F906F90A2
:103670005F904F903F902F9008952F923F924F92DE
:103680005F926F927F928F929F92AF92BF92CF92F2
:10369000DF92EF92FF920F931F93CF93DF93CDB7FB
:1036A000DEB72C97DEBFCDBF9C878B872A013B01FD
:1036B00009831A832B833C834230510561057105D0
:1036C00008F44EC1FC018789908DA18DB28D4817F9
:1036D00059076A077B0708F043C18081823009F4EB
:1036E000ABC018F4813029F03BC1853008F4D5C057
:1036F00037C14A0196948794840C951CA401452FE8
:10370000552746959A0140E050E060E070E080E087
:1037100090E0AB85BC859796AC9097979896BC90B7
:1037200098979996CC9099979A96DC909A979B96B1
:10373000EC909B979C96FC909C979D960C919D97E6
:103740009E961C919E970E94665689019A01AB0134
:10375000BC01CD010E947F0E182F811102C1EB85A3
:10376000FC85E15BFF4FFE83ED831401FFEF2F1A11
:103770003F0A21E09222ED81FE81E80DF91DD3017F
:10378000C20181709927AA27BB278F839887A987B1
:10379000BA8740FE0AC08081282F2F70B981A0E12E
:1037A000BA9FC0011124822B01C08981808381E0EE
:1037B000EB85FC8583834101892C992486949401AF
:1037C00040E050E060E070E080E090E0A7A0B0A4AE
:1037D000C1A4D2A4E3A4F4A405A516A50E9466562C
:1037E00089019A01AB01BC01CF010E947F0E182F05
:1037F0008111B7C0F1E03F22ED81FE81E20DF31DA2
:103800002F81388549855A85232B242B252B69F058
:1038100089819A81AB81BC8154E0B695A795979533
:1038200087955A95D1F7682F05C06081607F8A819E
:103830008F70682B60838EC0BB24A72C962C852CA0
:103840009401A50160E070E080E090E0EB85FC85EC
:10385000A7A0B0A4C1A4D2A4E3A4F4A405A516A56E
:103860000E94665689019A01AB01BC01CF010E94FA
:103870007F0E182F811175C0EB85FC85E15BFF4F32
:10388000440C551CE89440F821E05222E40DF51D4B
:10389000398130834A8141835DC04A015B0127E061
:1038A000B694A794979487942A95D1F79401A5018B
:1038B00060E070E080E090E0EB85FC85A7A0B0A41C
:1038C000C1A4D2A4E3A4F4A405A516A50E9466563B
:1038D00089019A01AB01BC01CF010E947F0E182F14
:1038E00081113FC0AB85BC858C91A15BBF4F4D0161
:1038F000440C551C440C551C8430E9F0C980DA8016
:10390000EB80FC80BFE0FB22C2018C7F9170880DB0
:10391000991D0E945308DC01CB0188279927AA270B
:10392000B07F9C01AD012C293D294E295F292983B7
:103930003A834B835C833CEF432231E05322F40112
:10394000E40DF51D498140835A8151838B81828327
:103950009C81938381E0AB85BC8513968C9301C0D9
:1039600012E0812F2C96DEBFCDBFDF91CF911F914A
:103970000F91FF90EF90DF90CF90BF90AF909F900E
:103980008F907F906F905F904F903F902F90089511
:103990002F923F924F925F926F927F928F929F925F
:1039A000AF92BF92CF92DF92EF92FF920F931F934D
:1039B000CF93DF9300D000D0CDB7DEB79C838B834D
:1039C0006A017B0109831A83322E232E82E0882E1E
:1039D000912CA12CB12C412C512C32014394EB8120
:1039E000FC8186899789A08DB18D0097A105B105CD
:1039F00099F182309105A105B10558F09501840136
:103A0000081B190B2A0B3B0B0C0D1D1D2E1D3F1DFA
:103A100004C009811A81232D322DB301A201481B54
:103A2000590B6A0B7B0B4C0D5D1D6E1D7F1DEB81D1
:103A3000FC818081918121DE81110FC0EB81FC81AD
:103A400086899789A08DB18D0197A109B109868BCF
:103A5000978BA08FB18FC3CF80E02496DEBFCDBF00
:103A6000DF91CF911F910F91FF90EF90DF90CF905A
:103A7000BF90AF909F908F907F906F905F904F908E
:103A80003F902F9008958F929F92AF92BF92CF92C6
:103A9000DF92EF92FF920F931F93CF93DF93FC017E
:103AA0002581233021F5EC014681578160857185A0
:103AB000C288D388E488F588C40ED51EE61EF71E9A
:103AC0004C155D056E057F0589F04A015B01FFEF2E
:103AD0008F1A9F0AAF0ABF0A9501840188819981D4
:103AE000CCDD811105C0B501A401EACF1D8280E0C3
:103AF000DF91CF911F910F91FF90EF90DF90CF90CA
:103B0000BF90AF909F908F9008954F925F926F9269
:103B10007F928F929F92AF92BF92CF92DF92EF925D
:103B2000FF920F931F93CF93DF93CDB7DEB7269706
:103B3000DEBFCDBF6C0149835A836B837C83DC017C
:103B40000D90BC91A02DBE83AD83452B462B472BFA
:103B5000B9F41F964D905D906D907C9052974114F2
:103B6000510461047104A1F157968D919D910D90BE
:103B7000BC91A02D481659066A067B0668F128C03C
:103B800049815A816B817C810E947A116230710572
:103B90008105910508F4A8C16F3FBFEF7B078B0734
:103BA0009B0729F44FEF3FEF2FEF9FEFAEC1ED8161
:103BB000FE818788908CA18CB28C681579058A0566
:103BC0009B0508F496C149805A806B807C8004C0B4
:103BD000412C512C32014394ED81FE8183899489DB
:103BE000A589B689892B8A2B8B2B11F440E07DC1E6
:103BF000AD81BE818C91843009F0A1C001E010E05C
:103C000020E030E0B301A201CD010E94A40F4B01DE
:103C10005C01DC01CB010197A109B1098E3F9F4FE7
:103C2000AF4FBF4F08F069C1EE24E394F12C01E0DF
:103C300010E020E030E0B501A4018D819E810E945A
:103C4000AF10823009F450C1813009F4ABCF298123
:103C50003A814B815C81232B242B252B19F492E094
:103C6000D6011DC0F60195819230D9F4B301A201AD
:103C70004F5F5F4F6F4F7F4F84169506A606B706BE
:103C800081F04681578160857185441A550A660A1C
:103C9000770AD601428A538A648A758A93E0159618
:103CA0009C93F6019581923009F42CC1468957897D
:103CB000608D718D49805A806B807C80FFEF4F1A38
:103CC0005F0A6F0A7F0A84149504A604B704B1F44E
:103CD000411551056105710529F04F5F5F4F6F4F29
:103CE0007F4F04C042E050E060E070E0D60156969D
:103CF0004D935D936D937C93599704C1452B462B4F
:103D0000472B49F481E090E0A0E0B0E0F601868B1B
:103D1000978BA08FB18F9501840149815A816B8166
:103D20007C81C60135DE8111DCC081E090E0A0E03D
:103D3000B0E0F601868B978BA08FB18FA8C0298148
:103D40003A814B815C81421653066406750609F080
:103D500049C0530142013FEF831A930AA30AB30AF1
:103D6000ED81FE818789908DA18DB28D881699068F
:103D7000AA06BB0628F092E0892E912CA12CB12C2A
:103D8000B501A401C6010E947A1161307105810557
:103D9000910509F4A9C06F3FFFEF7F078F079F07C9
:103DA00009F400CF672B682B692BB9F0ED81FE81F8
:103DB00087859089A189B28982309105A105B105D5
:103DC00088F04789508D618D728D84179507A607FD
:103DD000B70740F42C013D0105C081149104A104F2
:103DE000B104D1F553014201FFEF8F1A9F0AAF0AC8
:103DF000BF0AED81FE818789908DA18DB28D8816D5
:103E00009906AA06BB0660F0F2E04F165104610461
:103E1000710408F4EBCE82E0882E912CA12CB12CF9
:103E2000B501A401C6010E947A11611571058105D1
:103E3000910591F0613071058105910509F454C037
:103E40006F3F7F4F8F4F9F4F09F4ACCE8414950482
:103E5000A604B70449F6CACE0FEF1FEF9801B501CB
:103E6000A4018D819E8109DC81113BC089819A81E9
:103E7000AB81BC810097A105B10549F09501840192
:103E8000AC01BD018D819E81F8DB81112AC0AD811D
:103E9000BE811F968D929D92AD92BC925297FD016C
:103EA00083899489A589B6894789508D618D728DE2
:103EB0004250510961097109481759076A077B0780
:103EC00038F00197A109B109838B948BA58BB68B30
:103ED000AD81BE8114968C911497816014968C9359
:103EE0000CC0813009F45ECE41E030E020E090E08B
:103EF0000CC0462F372F282F08C0482D392D2A2DCA
:103F00009B2D03C0882319F2EFCF642F732F822FCC
:103F10002696DEBFCDBFDF91CF911F910F91FF900D
:103F2000EF90DF90CF90BF90AF909F908F907F9059
:103F30006F905F904F9008954F925F926F927F9233
:103F40008F929F92AF92BF92CF92DF92EF92FF92A9
:103F50000F931F93CF93DF93EC015B0108811981CD
:103F6000CEA0DFA0E8A4F9A480E2C80ED11CE11C19
:103F7000F11CF8018081843029F080E090E0A0E21B
:103F8000B0E004C080E090E0A0E0B0E1C816D9063F
:103F9000EA06FB0640F01EA61FA618AA19AA1AAA2E
:103FA0001BAA1CAA1DAA5EA46FA478A889A89AA817
:103FB000BBA9FCA9EDA9252D362D472D582D692D1E
:103FC0007B2F8F2F9E2FA0E00E948D5609F4B8C042
:103FD000B701A601517066277727452B462B472B43
:103FE00009F0A0C0472D582D692D7B2FA1E00E941C
:103FF0006F562EA73FA748AB59AB6AAB7BAB8CABD8
:104000009DAB4AA55BA56CA57DA5F80141155105A1
:1040100061057105E1F487819085A0E0B0E0B7010A
:10402000A60135E076956795579547953A95D1F76E
:10403000481759076A077B0708F474C01EA61FA615
:1040400018AA19AA1AAA1BAA1CAA1DAA79C0818596
:1040500092850197A0E0B0E02601370129E076942F
:104060006794579447942A95D1F784219521A621E6
:10407000B721892B8A2B8B2B09F054C0CE010E94CB
:104080007A112B013C01623071058105910510F414
:1040900082E059C08FEF481658066806780611F47A
:1040A00081E051C0F8018789908DA18DB28D4816AD
:1040B00059066A067B0628F1AB2809F4BFCF4AA54A
:1040C0005BA56CA57DA5CE0120DD2B013C01611512
:1040D000710581059105B1F1613071058105910589
:1040E000B9F28FEF4816580668067806C9F2B30190
:1040F000A201C8010E94EC0D8111D2CF8D81846094
:104100008D834AA65BA66CA67DA6B301A201C80159
:104110000E94C0082EA73FA748AB59AB6AAB7BAB48
:104120008CAB9DABCEA2DFA2E8A6F9A6015B1F4F28
:10413000E1E0DE22C00ED11EDFAACEAA80E003C0DD
:1041400084E001C087E0DF91CF911F910F91FF9034
:10415000EF90DF90CF90BF90AF909F908F907F9027
:104160006F905F904F900895AF92BF92CF92DF9281
:10417000EF92FF920F931F93CF93DF93EC015B01BC
:10418000C880D98040E050E0BA010E94AD1381118F
:1041900033C0E12CF12C0EA51FA528A939A94AA9E5
:1041A0005BA96CA97DA9C6010E947F0E811124C064
:1041B000F6019081EEA9FFA9943031F49081909599
:1041C000991F9927991F07C0208191E0253E11F082
:1041D000211190E09170992339F0FFEFEF1AFF0A57
:1041E000EA14FB0419F40BC0E12CF12C61E070E03F
:1041F000CE01A2DE882379F2843009F487E0DF91D2
:10420000CF911F910F91FF90EF90DF90CF90BF90D3
:10421000AF900895AF92BF92CF92DF92EF92FF924C
:104220000F931F93CF93DF93EC0188819981FC0159
:10423000E584F6840EA51FA528A939A94AA95BA97A
:104240006CA97DA90E947F0E811194C0EEA9FFA9DF
:104250008081853811F082E08DC080E2D701019025
:104260000D928A95E1F7F701C180D12CFFEFCF1AAB
:10427000DF0A25E0CC0CDD1C2A95E1F7C60180564B
:1042800091098130924038F760E070E0CE0154DE51
:10429000843009F381116EC00EA51FA528A939A984
:1042A0004AA95BA96CA97DA9888199810E947F0E8A
:1042B000811160C0EEA9FFA98081803C61F680E297
:1042C000D701909601900D928A95E1F7F70183A1AD
:1042D00090E08C966FE070E00E94615595E0660F6B
:1042E000771F9A95E1F7C616D70608F4B4CF80E495
:1042F000A82EB12C60E070E0CE011EDE843009F4FF
:10430000AACF811137C00EA51FA528A939A94AA98E
:104310005BA96CA97DA9888199810E947F0E81117A
:1043200029C0EEA9FFA98081813C09F094CF20E645
:10433000A21622E0B20640F480E2D701AA0DBB1D0E
:1043400001900D928A95E1F780E2A80EB11CAC14A1
:10435000BD0480F2E1E6AE16E2E0BE0650F4C7010D
:104360000E948009F701228133818217930709F0A7
:1043700072CF80E0DF91CF911F910F91FF90EF906E
:10438000DF90CF90BF90AF9008950F931F93CF937E
:10439000DF93EC01FB018081918199838883828D79
:1043A000938DA48DB58D8E839F83A887B987068D45
:1043B000178D20A131A10D8300270A871B872C8729
:1043C0003D871E861F86188A198A1E8A1F8A188EA4
:1043D000198E42A153A164A175A1FE01EC5BFF4FB0
:1043E0004083518362837383CE010E94AD13811198
:1043F00006C0CE01DF91CF911F910F910BCFDF91BE
:10440000CF911F910F9108953F924F925F926F92BB
:104410007F928F929F92AF92BF92CF92DF92EF9254
:10442000FF920F931F93CF93DF93EC016B01E88012
:10443000F980BB24BA9477247A94E4E01DE0A12E9D
:104440004C0144E4840E911C0EA51FA538A849A870
:104450005AA86BA8BCA9FDA99801432D542D652D20
:10446000762D8B2F9F2FA0E00E948D5609F4D0C08F
:10447000232D342D452D562D6B2F7F2FC7010E94E4
:104480007F0EE82F8111C6C0EEA9FFA9108111236C
:1044900009F4CDC0D7018C91843019F5C114D10431
:1044A00021F0133809F0ABC0C4C0153809F0A7C01B
:1044B0008EA19FA1A8A5B9A5FE01EC5BFF4F80834B
:1044C0009183A283B383CE01A5DEE82F8111A2C020
:1044D000D7011D96ED91FC911E9784818F738C837B
:1044E000A8C083858F738C83153E09F486C01E3265
:1044F00009F483C021E030E0982F9F71983011F0CB
:1045000020E030E0C216D30609F077C08F3009F002
:1045100062C016FF0DC085851F7B4EA15FA168A5F7
:1045200079A5D4014D935D936D937C93139703C04C
:10453000711263C08B2DB584B8125EC0828D938DCD
:10454000892B09F05AC0D7011B966D917C911C975D
:10455000808190E08F7B0197A89E9001A99E300DED
:104560001124BDEC4B2EB2E05B2E81E090E0D20135
:104570004D912D013F01640E711CD3014D915C9151
:10458000009781F02F3F310509F0B8F5C901880F78
:10459000991F860F971FDC014D935C93CA012F5F13
:1045A0003F4F03C04F3F5F4F41F54AED441642E095
:1045B0005406E9F6408146FF36C0892BA1F12F3F12
:1045C000310509F0D0F4220F331FFB01E20FF31F76
:1045D0001182108228C0711005C0CF010E9471099C
:1045E000B81639F1CC5BDF4F8FEF9FEFDC0188838A
:1045F0009983AA83BB831DC0B82E77247A9460E088
:1046000070E0CE0199DCE82F882309F41DCF02C0A9
:10461000EE2379F01EA61FA618AA19AA1AAA1BAA89
:104620001CAA1DAA07C077247A94710EE8CFE4E093
:10463000F1CFE0E08E2FDF91CF911F910F91FF908E
:10464000EF90DF90CF90BF90AF909F908F907F9032
:104650006F905F904F903F9008952F923F924F92AE
:104660005F926F927F928F929F92AF92BF92CF9202
:10467000DF92EF92FF920F931F93CF93DF93CDB70B
:10468000DEB76097DEBFCDBF3C01DC014D905C9092
:1046900040E050E0BA010E94AD13811195C1F201D2
:1046A0008081843009F056C0838594850E94D00CA7
:1046B0006C0160E070E0C301A7DE811185C1D20109
:1046C0001D96ED91FC911E9784A195A1C816D9065F
:1046D00081F7E3A0F12C1A82198200E410E08981AD
:1046E0009A818E159F0509F452C1C8018F719927CF
:1046F000892B11F40E5F1F4FD2011D96ED91FC9195
:104700001E97E00FF11F6081718180E090E00E94B0
:10471000F4414B015C01F2012385348589819A8142
:10472000880F991FF901E80FF91F6081718180E0FE
:1047300090E00E94F44186169706A806B90609F093
:10474000B8CF0E5F1F4F29813A812F5F3F4F3A83C9
:104750002983C5CFD301AC5BBF4FBA83A9838FEF49
:104760009FEFDC01E981FA8180839183A283B38387
:10477000FFEFFD832FEF2B8388248A94982C54011C
:10478000C3018D5B9F4F9A878987D301D896BE87D7
:10479000AD87F30106A517A520A931A942A953A900
:1047A00064A975A9C2010E947F0E81110DC1D301B8
:1047B000D6960D911C91D797F8013080332009F4DB
:1047C000E4C09385892F8F7314968C93F5EE3F1672
:1047D00021F093FF0CC08F3069F0A981BA818D92CE
:1047E0009D92AD92BC921397BFEFBB83C6C08F3032
:1047F00009F09EC0E985FA85808186FDBEC036FE3F
:1048000013C0D8011D96BC91BD83E32DEF7B3E2ED6
:10481000F30186A197A1A0A5B1A5E981FA818083C2
:104820009183A283B38303C0FB81F311A1C0D8019C
:104830001D962C90BD812B129EC0F801828D938D08
:10484000892B09F0BDC0D2011B960D90BC91A02D03
:10485000B887AF8380818F7390E001972DE0289F08
:10486000F001299FF00D1124F88BEF878DEC92E079
:104870009C838B8381E090E0AB81BC812D91BC83D4
:10488000AB83F801E20FF11D208131813E832D833E
:10489000009771F18F8598898F3F910511F008F08D
:1048A0008FC0B90180E090E00E94F4416B017C016F
:1048B000AF85B8891196BC87AB87EF85F889EE0F75
:1048C000FF1F2F813885E20FF31F6081718180E027
:1048D00090E00E94F441C616D706E806F90609F0F2
:1048E0006FC08D819E81AB85BC85B88BAF8705C0BD
:1048F000ED81FE81319609F063C0AB81BC81AA5D78
:10490000B24009F0B9CFD8012C9126FF55C0892BB0
:1049100009F452C0EF85F889EE0FFF1F2F8138850B
:10492000E20FF31F80819181892B09F445C048C0B3
:104930003B81311108C0C8010E9471094D814813A3
:1049400002C080E041C0A985BA858C9180FD09C074
:104950004BE050E06D857E85C8010E94B956892BD9
:1049600081F3E981FA8180829182A282B38229C097
:104970002FEF2B8302C03FEF3B8360E070E0C30169
:10498000DBDA882309F405CF1FC084E01DC08981CC
:104990009A81880F991F9A838983D2011B968D91E2
:1049A0009C911C97E981FA81E80FF91F8081918120
:1049B000892B09F07ECEC5CF3A943B822D82DDCF84
:1049C0002D82FFEFFB83D9CF6096DEBFCDBFDF9195
:1049D000CF911F910F91FF90EF90DF90CF90BF90FC
:1049E000AF909F908F907F906F905F904F903F908F
:1049F0002F9008952F923F924F925F926F927F92E5
:104A00008F929F92AF92BF92CF92DF92EF92FF92DE
:104A10000F931F93CF93DF93CDB7DEB72F97DEBFF2
:104A2000CDBF7C01DC010D90BC91A02DBF83AE8376
:104A3000CB019C838B83FC01208101962F32C9F32B
:104A40002C35B9F3D70116961D921D921D921C921A
:104A50001997F701168A178A108E118EAB81BC81C7
:104A60008C918032A0F0F896FB87EA8797012D5B46
:104A70003F4F398728878E819F81815B9F4F9D871C
:104A80008C87D701AC5BBF4FBF87AE8795C0F7015E
:104A9000ED5BFF4F80E8808340E050E0BA01C70142
:104AA0000E94AD13DCC10115110509F011C18E97EB
:104AB00009F40EC1929182918E9721F031E0C31AD0
:104AC000D108C1F74BE050E060E270E08A859B8539
:104AD0000E94CF5648E0842E912CA12CB12C412C61
:104AE00038018FEF681A780A000F111FF101E00FEB
:104AF000F11F008111810115110509F0EDC0D701E9
:104B0000D8968C91D897853E19F4E5E0D896EC9329
:104B1000F8E08F16910411F4440C440C842D8C7031
:104B20008C3009F46CC1842D8370833009F467C123
:104B300051FE69C1A885B9855C92C7018EDDE88503
:104B4000F985908181116CC192FD89C1D7011496BC
:104B50008C91149784FF7BC1EE81FF81808184302A
:104B600009F063C116968D919D910D90BC91A02D79
:104B7000F701828F938FA48FB58F82859385A4854B
:104B8000B58588272581822B868F978FA0A3B1A317
:104B9000EE85FF8580819181A281B381F70182A397
:104BA00093A3A4A3B5A3B701AE81BF811D968D9138
:104BB0009C911E970E942C0DEB81FC81FA83E98366
:104BC000D701ED91FC9123843484C12CD12CCE01EA
:104BD00001960E94AD0C4B015C016F3FBFEF7B075C
:104BE0008B079B0709F41AC1611571058140910576
:104BF00058F0F601EE0FFF1FE20DF31DB182A08207
:104C000096012F5F3F4F6901C4018032910570F119
:104C10008F32910519F18C35910501F1803891059C
:104C200040F4B4018DE392E00E94D656892B09F03E
:104C3000F5C03FEFC316D10408F0F0C0F601EE0F47
:104C4000FF1FE20DF31D91828082C60101966C0167
:104C5000BECF8C3549F43196FA83E983E981FA8134
:104C600080818F32B1F7F7CF803218F474E0572E7D
:104C700001C0512CA981BA81BC83AB83F601EE0F30
:104C8000FF1FE20DF31DC114D10459F092918291DE
:104C90008032910511F08E9721F4B1E0CB1AD10842
:104CA000F2CFF601EE0FFF1FE20DF31D118210820D
:104CB000C114D10409F4B2C0D10100E010E08D911B
:104CC0009D918032910509F0EECE0F5F1F4FF7CF17
:104CD000252D2360522EEECE0032110531F00E321A
:104CE000110541F46C147D0461F0952D9360592EEB
:104CF0008301F6CEA814B90440F46C147D0421F5A8
:104D0000A8C0A814B90408F4A4C0ABE08A169104A2
:104D100039F4B52DB3605B2E2BE0822E912CEFCEB3
:104D20006C147D0439F0E52DE3605E2EC614D704C3
:104D300008F4E5CE440C440C36018BE0882E912C0F
:104D400098E0A92EB12CD4CF0038110578F1F52DBB
:104D5000F260FD83B80180E090E044E553E00E94FA
:104D6000AC418C0187FF08C00F771127F801E35B86
:104D7000FD4F008110E016C08F3F910599F090F033
:104D8000C4010197A816B90628F0252D2360522EDC
:104D90005401AECFF701EA0DFB1D10AFC50101961E
:104DA0005C0124C00115110549F001C05D82B80104
:104DB00086E492E00E94D656892B31F09D81936063
:104DC0009D830FE510E012C0C801815491094A97F4
:104DD00018F4A42DA2604A2EC801815691094A9761
:104DE00028F4B42DB1604B2E00521109F701EA0DE1
:104DF000FB1D00AFF50131965F015D8079CF252D58
:104E00002260522E95CE40FE03C0352D3061532EC8
:104E100042FE90CE852D8860582E8CCE86E01FC035
:104E20008430E9F492FF13C01AC0F70166A177A19C
:104E300071702C853D85620F731F0E940A0DD7018A
:104E400016966D937D938D939C931997B5CE85E0BF
:104E500006C0BBE08B16910409F06CCF5ACF2F9699
:104E6000DEBFCDBFDF91CF911F910F91FF90EF90EB
:104E7000DF90CF90BF90AF909F908F907F906F907A
:104E80005F904F903F902F900895BF92CF92DF9206
:104E9000EF92FF920F931F93CF93DF93EC01E88182
:104EA000F981E584F684C7010E948009F7018283B5
:104EB0009383C180FE01EC5BFF4F40815181628191
:104EC0007381CE010E94AD13D12CBB24B394811108
:104ED00027C00EA51FA528A939A94AA95BA96CA9B5
:104EE0007DA9888199810E947F0E811119C0AEA988
:104EF000BFA990E2F70101900D929A95E1F7E88140
:104F0000F981B382C114D10459F0F0E2EF0EF11C23
:104F100060E070E0CE0110D891E0C91AD108D7CF77
:104F2000833008F082E0DF91CF911F910F91FF90C5
:104F3000EF90DF90CF90BF9008952F923F924F92C5
:104F40005F926F927F928F929F92AF92BF92CF9219
:104F5000DF92EF92FF920F931F93CF93DF93CDB722
:104F6000DEB7C455D109DEBFCDBF9C012D5B3F4FDD
:104F700065963FAF2EAF6597D9012C91322F307ACD
:104F800009F0B5C2FC0160807180D3011B96ED91E0
:104F9000FC911C97E12CF12C41915191452B21F072
:104FA000BFEFEB1AFB0AF8CF4C01F301808184308C
:104FB00009F0FCC0C7010E966FE070E00E946155D9
:104FC0008B016E5F7F4FC401CFD8811191C29401D4
:104FD0002C5B3F4F0F5F174FA5E0000F111FAA95E5
:104FE000E1F7F40186A197A1A0A5B1A5801B910BC3
:104FF000A109B109F90180839183A283B383D4010C
:1050000015968C91159782FF7CC08B7F15968C939B
:10501000C4010E94431D81116BC2F40142A553A536
:1050200064A575A50FEF1FEF9801C4010E94C81C6D
:1050300081115EC2F40186819781A085B185892B9B
:105040008A2B8B2B09F45DC0B401CE0101969DD94A
:1050500081114EC2D3011996AD90BC901A97C5012B
:10506000A0E0B0E0F9E0880F991FAA1FBB1FFA95D6
:10507000D1F75C016D019C01A60160E070E080E069
:1050800090E0F401A284B384C484D584E684F784D8
:10509000008911890E946656228733874487558785
:1050A00066877787808B918BD3011D96ED91FC915C
:1050B0001E9789019A01AB01BC01CF01C8960E94DD
:1050C0009508F40102851385248535854685578525
:1050D00060897189D3011D968D919C911E97889648
:1050E0000E949508D3011D96ED91FC911E97D40165
:1050F00015968C91816081A3CE010196C6DE811147
:10510000F7C1F301838594850585168520E4D801D0
:105110001D922A95E9F725E8F801208320EC20A3C9
:1051200061E070E020E030E040E450E0E1ECFE2E91
:10513000F801E40FF51FF082DA011196A00FB11FFC
:105140004E5F5F4F1C926115710559F0DC01A20F93
:10515000B11DA20FB11D6D917C916115710509F012
:105160002F5F628373834E5F5F4F3296DA01AF71B8
:10517000BB27AB2B41F7A1E0A30FFC01E20FF11D10
:10518000E20FF11D0190F081E02DEF2B11F03A2F8D
:10519000CFCFD80193962C9393973E5F11963C9373
:1051A0000E94D00CF80184A395A39FC18CE0F40168
:1051B000F896DE01119601900D928A95E1F720FF95
:1051C000A1C080E46596AEADBFAD65978C93A12C70
:1051D000B12C6501A3942401B8E34B0E511C1EE7CA
:1051E000A501F301238594858BE0FE013196D20160
:1051F00001900D928A95E1F74630510518F1E22FA2
:10520000F92FB601A501819191910097D9F020E184
:1052100030E0440F551F661F771FDC01A170BB27CC
:105220004A0F5B1F611D711D9695879560FF06C033
:10523000A1E24A27A0E15A27A1E06A2721503109BB
:1052400041F7E1CFEBE4F0E0EC0FFD1F389687E08B
:1052500090E0342F3F7020E3230F04E056954795EC
:105260000A95E1F72A3310F027E3230F01972293E1
:10527000009719F04115510561F7EBE4F0E0EC0FF0
:10528000FD1FE80FF91F1083F20120E030E028171E
:10529000390731F04191403219F02F5F3F4FF7CF7E
:1052A000F201E20FF31F8830910548F4ABE4B0E05F
:1052B000AC0FBD1FA80FB91F2C91019601C020E2B1
:1052C00021939F01241935092830310560F3C40169
:1052D000C4D981110EC0BFEFAB1ABB0ACB0ADB0ADF
:1052E000E4E6AE16B104C104D10409F079CF87E039
:1052F000FFC0843009F0FCC08C856596AEADBFADB3
:1053000065978C938C8581FF0AC0C7010C966DE070
:1053100070E00E9461558B010F5F1F4F02C001E0DA
:1053200010E0B801C4010E94B4208111E1C07801ED
:10533000B1E0EB1AF10809F499C0F40146A157A1B4
:1053400060A571A5C701B5E0880F991FBA95E1F76F
:10535000481B590B61097109C4010E94AD138111E9
:10536000C7C0C401C8960E947109B82EEFE02E2E66
:10537000FDE03F2EAAED4A2EA2E05A2EAA24A394C5
:10538000D4019E960C919E979F961C919F97D096C4
:105390002C91D097D1963C91D197D2964C91D2979F
:1053A000D3965C91D397D4966C91D497D5967C91F3
:1053B000C3010E947F0E81119BC01E2DD401D69681
:1053C000ED91FC91D797D3011B964D915C911C9761
:1053D000B58623861486128E138E970133272150AB
:1053E0003109329EC001339E900D11247DECC72EF1
:1053F00072E0D72E20E030E02F3FBFEF3B0749F0AF
:105400009C01220F331F240F351FD9012D913C9190
:105410000196D6016D916D01DF01A60FB11D2C9390
:1054200011963C932115310511F42FEF3FEF4C14E9
:105430005D0411F72F3F3F4F49F0880F991FDA01A4
:10544000A80FB91F8D919C91892B09F410641083CA
:10545000F301A38260E070E0C4010E949C1F8111EF
:1054600047C0F1E0EF1AF10809F08ACFD4019E9607
:105470000C919E979F961C919F97D0962C91D097B8
:10548000D1963C91D197D2964C91D297D3965C917C
:10549000D397D4966C91D497D5967C91C3010E94F2
:1054A0007F0E811125C0D401D696ED91FC91D7973E
:1054B00080E2DF011D928A95E9F7F401A6A9B7A958
:1054C000F8968BE001900D928A95E1F7D401D6967B
:1054D000ED91FC91D7976596AEADBFAD65978C9178
:1054E0008871848781E0F301838380E001C086E0D6
:1054F000CC5ADF4FDEBFCDBFDF91CF911F910F910F
:10550000FF90EF90DF90CF90BF90AF909F908F90E3
:105510007F906F905F904F903F902F9008952F92C3
:105520003F924F925F926F927F928F929F92AF9233
:10553000BF92CF92DF92EF92FF920F931F93CF9380
:10554000DF93CDB7DEB72697DEBFCDBF1C016A0162
:105550007B0128013901423051056105710510F4C4
:1055600082E00CC1DC010D90BC91A02DBE83AD8307
:1055700057968D919D910D90BC91A02D481759077C
:105580006A077B0768F7411451046104710429F428
:10559000C982DA82EB82FC825EC0ED81FE8180816D
:1055A000843029F4D10115968C91823089F30FEF64
:1055B0001FEF9801B301A2018D819E810E943D1BC6
:1055C000882331F3DBC0613071058105910541F21B
:1055D0006F3F7F4F8F4F9F4F09F470C0AD81BE81E9
:1055E0008C91843009F06CC0ED81FE8183899489AF
:1055F000A589B6894789508D618D728D42505109B8
:105600006109710984179507A607B70760F4019629
:10561000A11DB11DED81FE81838B948BA58BB68B73
:10562000848181608483FFEFCF1ADF0AEF0AFF0ACB
:105630008C149D04AE04BF0409F04FC075016401D1
:10564000ED81FE818789908DA18DB28D8816990696
:10565000AA06BB0668F4B701A601C1010E947A112F
:105660004B015C01611571058105910509F0ABCF16
:10567000ED81FE818081843009F07FC04CC0F10152
:10568000858181115FC0C680D780E084F184C41415
:10569000D504E604F70409F46DC0B701A601C10101
:1056A0000E947A11623071058105910508F458CF86
:1056B0006F3FFFEF7F078F079F07B9F581E05EC05F
:1056C00000E010E09801B701A6018D819E810E9443
:1056D0003D1B882309F488CF51C0AD81BE818C91D8
:1056E0008430A1F49701860189819A81AB81BC81C4
:1056F000081B190B2A0B3B0BE12CF12CAC01BD0153
:105700008D819E810E94AF10811138C089829A825A
:10571000AB82BC8293CF411451046104710409F03F
:10572000AECFD10115961C9228C02FEFC21AD20A13
:10573000E20AF20A6C157D058E059F05F1F46B01F6
:105740007C01A5CF8330C9F446815781608571857E
:10575000441655066606770680F082899389A489E7
:10576000B589840F951FA61FB71F84159505A6053B
:10577000B70518F082E0F101858380E02696DEBF50
:10578000CDBFDF91CF911F910F91FF90EF90DF90F0
:10579000CF90BF90AF909F908F907F906F905F90D1
:1057A0004F903F902F900895AF92BF92CF92DF928B
:1057B000EF92FF920F931F93CF93DF93EC018B81B6
:1057C000811105C08881833009F06EC007C0CE0109
:1057D0000E94500D982F811171C0F4CF8C818130BF
:1057E00009F062C080E092E05E012FE4A20EB11CDD
:1057F000F5019C01119221503040E1F785E5FE0151
:10580000E35BFD4F80838AEA3196808382E5F50170
:1058100080833196808381E63196808391E431964E
:10582000908322E7EF51FE4F2083319620833196FB
:105830009083319680833B892C899D898E8931960E
:1058400030833196208331969083319680833F85D3
:10585000288999898A8931963083319620833196B7
:105860009083319680832F8D38A149A15AA16BA1D5
:105870007CA18DA19EA1A1E00E946F56E75FF1403F
:105880002083318342835383648375838683978324
:10589000CC24C394D12C79018A019B01AC01B501C0
:1058A00089810E9430081C8240E050E060E08981DC
:1058B0000E944A0891E0811101C090E0892FDF9198
:1058C000CF911F910F91FF90EF90DF90CF90BF90FD
:1058D000AF9008951F93CF93DF93CDB7DEB7269790
:1058E000DEBFCDBF9C838B837E836D83142F7A8331
:1058F0006983CE0101960E94870A97FD20C0880F18
:10590000991FFC01E252F24F0190F081E02D309797
:1059100009F01082EB81FC81309709F01082DC01E4
:10592000A252B24FED93FC93112359F040E0BE0117
:105930006D5F7F4FCE0105960E94EF1403C08BE090
:1059400001C080E02696DEBFCDBFDF91CF911F91D1
:1059500008952F923F924F925F926F927F928F9213
:105960009F92AF92BF92CF92DF92EF92FF920F93EE
:105970001F93CF93DF93CDB7DEB7C656D109DEBFF5
:10598000CDBF2F967FAF6EAF2F97009709F4A5C3B9
:10599000142F2C01042F0F73702E402FBE01655B56
:1059A0007F4FCE01835B9F4F0E94EF146A968FAFAB
:1059B0006A978111A8C32D968EAD9FAD2D979A83BE
:1059C00089832F966EAD7FAD2F97CE01019612D8A9
:1059D000811105C025969FAD259797FD86E0912FF3
:1059E0009C7109F4EBC0882359F0843019F4CE017E
:1059F0000196A3DA172D1860712E882339F074C32D
:105A00008D81817109F06FC312FD69C373FEE7C018
:105A10002D968EAC9FAC2D97D4018C91843009F0DB
:105A200064C0F20191828082B2011D968D919C9199
:105A30001E970E942C0D2D96EEADFFAD2D97A585DE
:105A4000B6859D012E5F3F4F8EE1D9011D928A954B
:105A5000E9F7A585B6859D012A5D3F4F8AE1D90109
:105A60001D928A95E9F7A585B68580E214968C93F8
:105A7000A585B68518961C92189719961C921997A9
:105A800081E21A968C931A9780E51B968C93058475
:105A9000F685E02D81E081A3CE010196F6D9811132
:105AA00023C3F201468157816085718541155105F7
:105AB0006105710509F490C000E010E09801C20191
:105AC0002EDD2D96EEADFFAD2D97D20116964D91A0
:105AD0005D916D917C91199741505109610971094E
